{
  "contractName": "Contador",
  "abi": [
    {
      "constant": true,
      "inputs": [],
      "name": "valor",
      "outputs": [
        {
          "name": "",
          "type": "uint8"
        }
      ],
      "payable": false,
      "stateMutability": "view",
      "type": "function"
    },
    {
      "payable": false,
      "stateMutability": "nonpayable",
      "type": "fallback"
    },
    {
      "anonymous": false,
      "inputs": [
        {
          "indexed": false,
          "name": "msg",
          "type": "string"
        },
        {
          "indexed": false,
          "name": "out",
          "type": "uint8"
        }
      ],
      "name": "Tic",
      "type": "event"
    },
    {
      "constant": false,
      "inputs": [],
      "name": "incr",
      "outputs": [],
      "payable": false,
      "stateMutability": "nonpayable",
      "type": "function"
    },
    {
      "constant": false,
      "inputs": [],
      "name": "decr",
      "outputs": [],
      "payable": false,
      "stateMutability": "nonpayable",
      "type": "function"
    }
  ],
  "bytecode": "0x608060405260008060006101000a81548160ff021916908360ff16021790555034801561002b57600080fd5b506102758061003b6000396000f300608060405260043610610057576000357c0100000000000000000000000000000000000000000000000000000000900463ffffffff168063119fbbd414610069578063d9f2ac8a14610080578063ecbac7cf14610097575b34801561006357600080fd5b50600080fd5b34801561007557600080fd5b5061007e6100c8565b005b34801561008c57600080fd5b5061009561017f565b005b3480156100a357600080fd5b506100ac610237565b604051808260ff1660ff16815260200191505060405180910390f35b60008081819054906101000a900460ff168092919060010191906101000a81548160ff021916908360ff160217905550507f278733a8e0534f74d81486a11876429bb0d35a6968fa576ec403ad7aecfa2e6e6000809054906101000a900460ff1660405180806020018360ff1660ff1681526020018281038252600b8152602001807f41637475616c697a61646f0000000000000000000000000000000000000000008152506020019250505060405180910390a1565b60008081819054906101000a900460ff16809291906001900391906101000a81548160ff021916908360ff160217905550507f278733a8e0534f74d81486a11876429bb0d35a6968fa576ec403ad7aecfa2e6e6000809054906101000a900460ff1660405180806020018360ff1660ff1681526020018281038252600b8152602001807f41637475616c697a61646f0000000000000000000000000000000000000000008152506020019250505060405180910390a1565b6000809054906101000a900460ff16815600a165627a7a7230582011240801739526bef3e69777ae6c615bbaaef7bc640f91642862fcffb328f2410029",
  "source": "pragma solidity ^0.4.22;\n\ncontract Contador {\n    \n    uint8 public valor = 0;\n    \n    event Tic(string msg, uint8 out);\n        \n    function incr() public {\n        valor++;\n        emit Tic(\"Actualizado\", valor);\n    }\n    \n    function decr() public {\n        valor--;\n        emit Tic(\"Actualizado\", valor);\n    }\n    \n    function() public { \n        revert(); \n    }\n}\n",
  "sourcePath": "/Users/jmcp/contador/contracts/Contador.sol",
  "compiler": {
    "name": "solc",
    "version": "0.4.24+commit.e67f0147.Emscripten.clang"
  },
  "schemaVersion": "2.0.1",
  "updatedAt": "2018-11-21T19:56:00.380Z"
}